{
  "_format": "hh-sol-artifact-1",
  "contractName": "InvestDaoCore",
  "sourceName": "contracts/InvestDaoCore.sol",
  "abi": [
    {
      "inputs": [],
      "stateMutability": "nonpayable",
      "type": "constructor"
    },
    {
      "anonymous": false,
      "inputs": [
        {
          "indexed": true,
          "internalType": "address",
          "name": "owner",
          "type": "address"
        },
        {
          "indexed": true,
          "internalType": "address",
          "name": "spender",
          "type": "address"
        },
        {
          "indexed": false,
          "internalType": "uint256",
          "name": "value",
          "type": "uint256"
        }
      ],
      "name": "Approval",
      "type": "event"
    },
    {
      "anonymous": false,
      "inputs": [
        {
          "indexed": true,
          "internalType": "address",
          "name": "from",
          "type": "address"
        },
        {
          "indexed": true,
          "internalType": "address",
          "name": "to",
          "type": "address"
        },
        {
          "indexed": false,
          "internalType": "uint256",
          "name": "value",
          "type": "uint256"
        }
      ],
      "name": "Transfer",
      "type": "event"
    },
    {
      "inputs": [
        {
          "internalType": "address",
          "name": "owner",
          "type": "address"
        },
        {
          "internalType": "address",
          "name": "spender",
          "type": "address"
        }
      ],
      "name": "allowance",
      "outputs": [
        {
          "internalType": "uint256",
          "name": "",
          "type": "uint256"
        }
      ],
      "stateMutability": "view",
      "type": "function"
    },
    {
      "inputs": [
        {
          "internalType": "address",
          "name": "spender",
          "type": "address"
        },
        {
          "internalType": "uint256",
          "name": "amount",
          "type": "uint256"
        }
      ],
      "name": "approve",
      "outputs": [
        {
          "internalType": "bool",
          "name": "",
          "type": "bool"
        }
      ],
      "stateMutability": "nonpayable",
      "type": "function"
    },
    {
      "inputs": [
        {
          "internalType": "address",
          "name": "account",
          "type": "address"
        }
      ],
      "name": "balanceOf",
      "outputs": [
        {
          "internalType": "uint256",
          "name": "",
          "type": "uint256"
        }
      ],
      "stateMutability": "view",
      "type": "function"
    },
    {
      "inputs": [
        {
          "internalType": "string",
          "name": "link",
          "type": "string"
        }
      ],
      "name": "createProposal",
      "outputs": [],
      "stateMutability": "nonpayable",
      "type": "function"
    },
    {
      "inputs": [],
      "name": "decimals",
      "outputs": [
        {
          "internalType": "uint8",
          "name": "",
          "type": "uint8"
        }
      ],
      "stateMutability": "view",
      "type": "function"
    },
    {
      "inputs": [
        {
          "internalType": "address",
          "name": "spender",
          "type": "address"
        },
        {
          "internalType": "uint256",
          "name": "subtractedValue",
          "type": "uint256"
        }
      ],
      "name": "decreaseAllowance",
      "outputs": [
        {
          "internalType": "bool",
          "name": "",
          "type": "bool"
        }
      ],
      "stateMutability": "nonpayable",
      "type": "function"
    },
    {
      "inputs": [
        {
          "internalType": "address",
          "name": "account",
          "type": "address"
        }
      ],
      "name": "getStakedBalance",
      "outputs": [
        {
          "internalType": "uint256",
          "name": "",
          "type": "uint256"
        }
      ],
      "stateMutability": "view",
      "type": "function"
    },
    {
      "inputs": [
        {
          "internalType": "address",
          "name": "spender",
          "type": "address"
        },
        {
          "internalType": "uint256",
          "name": "addedValue",
          "type": "uint256"
        }
      ],
      "name": "increaseAllowance",
      "outputs": [
        {
          "internalType": "bool",
          "name": "",
          "type": "bool"
        }
      ],
      "stateMutability": "nonpayable",
      "type": "function"
    },
    {
      "inputs": [],
      "name": "name",
      "outputs": [
        {
          "internalType": "string",
          "name": "",
          "type": "string"
        }
      ],
      "stateMutability": "view",
      "type": "function"
    },
    {
      "inputs": [
        {
          "internalType": "uint256",
          "name": "amount",
          "type": "uint256"
        }
      ],
      "name": "stake",
      "outputs": [],
      "stateMutability": "nonpayable",
      "type": "function"
    },
    {
      "inputs": [],
      "name": "symbol",
      "outputs": [
        {
          "internalType": "string",
          "name": "",
          "type": "string"
        }
      ],
      "stateMutability": "view",
      "type": "function"
    },
    {
      "inputs": [],
      "name": "totalSupply",
      "outputs": [
        {
          "internalType": "uint256",
          "name": "",
          "type": "uint256"
        }
      ],
      "stateMutability": "view",
      "type": "function"
    },
    {
      "inputs": [
        {
          "internalType": "address",
          "name": "to",
          "type": "address"
        },
        {
          "internalType": "uint256",
          "name": "amount",
          "type": "uint256"
        }
      ],
      "name": "transfer",
      "outputs": [
        {
          "internalType": "bool",
          "name": "",
          "type": "bool"
        }
      ],
      "stateMutability": "nonpayable",
      "type": "function"
    },
    {
      "inputs": [
        {
          "internalType": "address",
          "name": "from",
          "type": "address"
        },
        {
          "internalType": "address",
          "name": "to",
          "type": "address"
        },
        {
          "internalType": "uint256",
          "name": "amount",
          "type": "uint256"
        }
      ],
      "name": "transferFrom",
      "outputs": [
        {
          "internalType": "bool",
          "name": "",
          "type": "bool"
        }
      ],
      "stateMutability": "nonpayable",
      "type": "function"
    },
    {
      "inputs": [
        {
          "internalType": "uint256",
          "name": "amount",
          "type": "uint256"
        }
      ],
      "name": "unstake",
      "outputs": [],
      "stateMutability": "nonpayable",
      "type": "function"
    },
    {
      "inputs": [],
      "name": "wrap",
      "outputs": [
        {
          "internalType": "bool",
          "name": "",
          "type": "bool"
        }
      ],
      "stateMutability": "payable",
      "type": "function"
    }
  ],
  "bytecode": "0x60806040523480156200001157600080fd5b506040518060400160405280600981526020017f496e7665737444414f00000000000000000000000000000000000000000000008152506040518060400160405280600481526020017f4944414f0000000000000000000000000000000000000000000000000000000081525081600390816200008f919062000324565b508060049081620000a1919062000324565b5050506200040b565b600081519050919050565b7f4e487b7100000000000000000000000000000000000000000000000000000000600052604160045260246000fd5b7f4e487b7100000000000000000000000000000000000000000000000000000000600052602260045260246000fd5b600060028204905060018216806200012c57607f821691505b602082108103620001425762000141620000e4565b5b50919050565b60008190508160005260206000209050919050565b60006020601f8301049050919050565b600082821b905092915050565b600060088302620001ac7fffffffffffffffffffffffffffffffffffffffffffffffffffffffffffffffff826200016d565b620001b886836200016d565b95508019841693508086168417925050509392505050565b6000819050919050565b6000819050919050565b600062000205620001ff620001f984620001d0565b620001da565b620001d0565b9050919050565b6000819050919050565b6200022183620001e4565b6200023962000230826200020c565b8484546200017a565b825550505050565b600090565b6200025062000241565b6200025d81848462000216565b505050565b5b8181101562000285576200027960008262000246565b60018101905062000263565b5050565b601f821115620002d4576200029e8162000148565b620002a9846200015d565b81016020851015620002b9578190505b620002d1620002c8856200015d565b83018262000262565b50505b505050565b600082821c905092915050565b6000620002f960001984600802620002d9565b1980831691505092915050565b6000620003148383620002e6565b9150826002028217905092915050565b6200032f82620000aa565b67ffffffffffffffff8111156200034b576200034a620000b5565b5b62000357825462000113565b6200036482828562000289565b600060209050601f8311600181146200039c576000841562000387578287015190505b62000393858262000306565b86555062000403565b601f198416620003ac8662000148565b60005b82811015620003d657848901518255600182019150602085019450602081019050620003af565b86831015620003f65784890151620003f2601f891682620002e6565b8355505b6001600288020188555050505b505050505050565b611d01806200041b6000396000f3fe6080604052600436106100f35760003560e01c806349c2a1a61161008a578063a694fc3a11610059578063a694fc3a14610364578063a9059cbb1461038d578063d46eb119146103ca578063dd62ed3e146103e8576100f3565b806349c2a1a61461029657806370a08231146102bf57806395d89b41146102fc578063a457c2d714610327576100f3565b80632e17de78116100c65780632e17de78146101c8578063313ce567146101f1578063395093511461021c5780633a02a42d14610259576100f3565b806306fdde03146100f8578063095ea7b31461012357806318160ddd1461016057806323b872dd1461018b575b600080fd5b34801561010457600080fd5b5061010d610425565b60405161011a9190611159565b60405180910390f35b34801561012f57600080fd5b5061014a60048036038101906101459190611219565b6104b7565b6040516101579190611274565b60405180910390f35b34801561016c57600080fd5b506101756104da565b604051610182919061129e565b60405180910390f35b34801561019757600080fd5b506101b260048036038101906101ad91906112b9565b6104e4565b6040516101bf9190611274565b60405180910390f35b3480156101d457600080fd5b506101ef60048036038101906101ea919061130c565b610513565b005b3480156101fd57600080fd5b50610206610585565b6040516102139190611355565b60405180910390f35b34801561022857600080fd5b50610243600480360381019061023e9190611219565b61058e565b6040516102509190611274565b60405180910390f35b34801561026557600080fd5b50610280600480360381019061027b9190611370565b6105c5565b60405161028d919061129e565b60405180910390f35b3480156102a257600080fd5b506102bd60048036038101906102b89190611402565b61060e565b005b3480156102cb57600080fd5b506102e660048036038101906102e19190611370565b6107eb565b6040516102f3919061129e565b60405180910390f35b34801561030857600080fd5b50610311610833565b60405161031e9190611159565b60405180910390f35b34801561033357600080fd5b5061034e60048036038101906103499190611219565b6108c5565b60405161035b9190611274565b60405180910390f35b34801561037057600080fd5b5061038b6004803603810190610386919061130c565b61093c565b005b34801561039957600080fd5b506103b460048036038101906103af9190611219565b6109ae565b6040516103c19190611274565b60405180910390f35b6103d26109d1565b6040516103df9190611274565b60405180910390f35b3480156103f457600080fd5b5061040f600480360381019061040a919061144f565b6109fd565b60405161041c919061129e565b60405180910390f35b606060038054610434906114be565b80601f0160208091040260200160405190810160405280929190818152602001828054610460906114be565b80156104ad5780601f10610482576101008083540402835291602001916104ad565b820191906000526020600020905b81548152906001019060200180831161049057829003601f168201915b5050505050905090565b6000806104c2610a84565b90506104cf818585610a8c565b600191505092915050565b6000600254905090565b6000806104ef610a84565b90506104fc858285610c55565b610507858585610ce1565b60019150509392505050565b80600860003373ffffffffffffffffffffffffffffffffffffffff1673ffffffffffffffffffffffffffffffffffffffff1681526020019081526020016000206000828254610562919061151e565b92505081905550806009600082825461057b919061151e565b9250508190555050565b60006012905090565b600080610599610a84565b90506105ba8185856105ab85896109fd565b6105b59190611552565b610a8c565b600191505092915050565b6000600860008373ffffffffffffffffffffffffffffffffffffffff1673ffffffffffffffffffffffffffffffffffffffff168152602001908152602001600020549050919050565b6006600081819054906101000a90046fffffffffffffffffffffffffffffffff168092919061063c906115a2565b91906101000a8154816fffffffffffffffffffffffffffffffff02191690836fffffffffffffffffffffffffffffffff16021790555050600060405180606001604052803373ffffffffffffffffffffffffffffffffffffffff168152602001600660009054906101000a90046fffffffffffffffffffffffffffffffff166fffffffffffffffffffffffffffffffff16815260200184848080601f016020809104026020016040519081016040528093929190818152602001838380828437600081840152601f19601f820116905080830192505050505050508152509050600781908060018154018082558091505060019003906000526020600020906003020160009091909190915060008201518160000160006101000a81548173ffffffffffffffffffffffffffffffffffffffff021916908373ffffffffffffffffffffffffffffffffffffffff16021790555060208201518160010160006101000a8154816fffffffffffffffffffffffffffffffff02191690836fffffffffffffffffffffffffffffffff16021790555060408201518160020190816107e391906117b5565b505050505050565b60008060008373ffffffffffffffffffffffffffffffffffffffff1673ffffffffffffffffffffffffffffffffffffffff168152602001908152602001600020549050919050565b606060048054610842906114be565b80601f016020809104026020016040519081016040528092919081815260200182805461086e906114be565b80156108bb5780601f10610890576101008083540402835291602001916108bb565b820191906000526020600020905b81548152906001019060200180831161089e57829003601f168201915b5050505050905090565b6000806108d0610a84565b905060006108de82866109fd565b905083811015610923576040517f08c379a000000000000000000000000000000000000000000000000000000000815260040161091a906118f9565b60405180910390fd5b6109308286868403610a8c565b60019250505092915050565b80600860003373ffffffffffffffffffffffffffffffffffffffff1673ffffffffffffffffffffffffffffffffffffffff168152602001908152602001600020600082825461098b9190611552565b9250508190555080600960008282546109a49190611552565b9250508190555050565b6000806109b9610a84565b90506109c6818585610ce1565b600191505092915050565b60006109dd3334610f60565b34600560008282546109ef9190611552565b925050819055506001905090565b6000600160008473ffffffffffffffffffffffffffffffffffffffff1673ffffffffffffffffffffffffffffffffffffffff16815260200190815260200160002060008373ffffffffffffffffffffffffffffffffffffffff1673ffffffffffffffffffffffffffffffffffffffff16815260200190815260200160002054905092915050565b600033905090565b600073ffffffffffffffffffffffffffffffffffffffff168373ffffffffffffffffffffffffffffffffffffffff1603610afb576040517f08c379a0000000000000000000000000000000000000000000000000000000008152600401610af29061198b565b60405180910390fd5b600073ffffffffffffffffffffffffffffffffffffffff168273ffffffffffffffffffffffffffffffffffffffff1603610b6a576040517f08c379a0000000000000000000000000000000000000000000000000000000008152600401610b6190611a1d565b60405180910390fd5b80600160008573ffffffffffffffffffffffffffffffffffffffff1673ffffffffffffffffffffffffffffffffffffffff16815260200190815260200160002060008473ffffffffffffffffffffffffffffffffffffffff1673ffffffffffffffffffffffffffffffffffffffff168152602001908152602001600020819055508173ffffffffffffffffffffffffffffffffffffffff168373ffffffffffffffffffffffffffffffffffffffff167f8c5be1e5ebec7d5bd14f71427d1e84f3dd0314c0f7b2291e5b200ac8c7c3b92583604051610c48919061129e565b60405180910390a3505050565b6000610c6184846109fd565b90507fffffffffffffffffffffffffffffffffffffffffffffffffffffffffffffffff8114610cdb5781811015610ccd576040517f08c379a0000000000000000000000000000000000000000000000000000000008152600401610cc490611a89565b60405180910390fd5b610cda8484848403610a8c565b5b50505050565b600073ffffffffffffffffffffffffffffffffffffffff168373ffffffffffffffffffffffffffffffffffffffff1603610d50576040517f08c379a0000000000000000000000000000000000000000000000000000000008152600401610d4790611b1b565b60405180910390fd5b600073ffffffffffffffffffffffffffffffffffffffff168273ffffffffffffffffffffffffffffffffffffffff1603610dbf576040517f08c379a0000000000000000000000000000000000000000000000000000000008152600401610db690611bad565b60405180910390fd5b610dca8383836110bf565b60008060008573ffffffffffffffffffffffffffffffffffffffff1673ffffffffffffffffffffffffffffffffffffffff16815260200190815260200160002054905081811015610e50576040517f08c379a0000000000000000000000000000000000000000000000000000000008152600401610e4790611c3f565b60405180910390fd5b8181036000808673ffffffffffffffffffffffffffffffffffffffff1673ffffffffffffffffffffffffffffffffffffffff16815260200190815260200160002081905550816000808573ffffffffffffffffffffffffffffffffffffffff1673ffffffffffffffffffffffffffffffffffffffff1681526020019081526020016000206000828254610ee39190611552565b925050819055508273ffffffffffffffffffffffffffffffffffffffff168473ffffffffffffffffffffffffffffffffffffffff167fddf252ad1be2c89b69c2b068fc378daa952ba7f163c4a11628f55a4df523b3ef84604051610f47919061129e565b60405180910390a3610f5a8484846110c4565b50505050565b600073ffffffffffffffffffffffffffffffffffffffff168273ffffffffffffffffffffffffffffffffffffffff1603610fcf576040517f08c379a0000000000000000000000000000000000000000000000000000000008152600401610fc690611cab565b60405180910390fd5b610fdb600083836110bf565b8060026000828254610fed9190611552565b92505081905550806000808473ffffffffffffffffffffffffffffffffffffffff1673ffffffffffffffffffffffffffffffffffffffff16815260200190815260200160002060008282546110429190611552565b925050819055508173ffffffffffffffffffffffffffffffffffffffff16600073ffffffffffffffffffffffffffffffffffffffff167fddf252ad1be2c89b69c2b068fc378daa952ba7f163c4a11628f55a4df523b3ef836040516110a7919061129e565b60405180910390a36110bb600083836110c4565b5050565b505050565b505050565b600081519050919050565b600082825260208201905092915050565b60005b838110156111035780820151818401526020810190506110e8565b60008484015250505050565b6000601f19601f8301169050919050565b600061112b826110c9565b61113581856110d4565b93506111458185602086016110e5565b61114e8161110f565b840191505092915050565b600060208201905081810360008301526111738184611120565b905092915050565b600080fd5b600080fd5b600073ffffffffffffffffffffffffffffffffffffffff82169050919050565b60006111b082611185565b9050919050565b6111c0816111a5565b81146111cb57600080fd5b50565b6000813590506111dd816111b7565b92915050565b6000819050919050565b6111f6816111e3565b811461120157600080fd5b50565b600081359050611213816111ed565b92915050565b600080604083850312156112305761122f61117b565b5b600061123e858286016111ce565b925050602061124f85828601611204565b9150509250929050565b60008115159050919050565b61126e81611259565b82525050565b60006020820190506112896000830184611265565b92915050565b611298816111e3565b82525050565b60006020820190506112b3600083018461128f565b92915050565b6000806000606084860312156112d2576112d161117b565b5b60006112e0868287016111ce565b93505060206112f1868287016111ce565b925050604061130286828701611204565b9150509250925092565b6000602082840312156113225761132161117b565b5b600061133084828501611204565b91505092915050565b600060ff82169050919050565b61134f81611339565b82525050565b600060208201905061136a6000830184611346565b92915050565b6000602082840312156113865761138561117b565b5b6000611394848285016111ce565b91505092915050565b600080fd5b600080fd5b600080fd5b60008083601f8401126113c2576113c161139d565b5b8235905067ffffffffffffffff8111156113df576113de6113a2565b5b6020830191508360018202830111156113fb576113fa6113a7565b5b9250929050565b600080602083850312156114195761141861117b565b5b600083013567ffffffffffffffff81111561143757611436611180565b5b611443858286016113ac565b92509250509250929050565b600080604083850312156114665761146561117b565b5b6000611474858286016111ce565b9250506020611485858286016111ce565b9150509250929050565b7f4e487b7100000000000000000000000000000000000000000000000000000000600052602260045260246000fd5b600060028204905060018216806114d657607f821691505b6020821081036114e9576114e861148f565b5b50919050565b7f4e487b7100000000000000000000000000000000000000000000000000000000600052601160045260246000fd5b6000611529826111e3565b9150611534836111e3565b925082820390508181111561154c5761154b6114ef565b5b92915050565b600061155d826111e3565b9150611568836111e3565b92508282019050808211156115805761157f6114ef565b5b92915050565b60006fffffffffffffffffffffffffffffffff82169050919050565b60006115ad82611586565b91506fffffffffffffffffffffffffffffffff82036115cf576115ce6114ef565b5b600182019050919050565b7f4e487b7100000000000000000000000000000000000000000000000000000000600052604160045260246000fd5b60008190508160005260206000209050919050565b60006020601f8301049050919050565b600082821b905092915050565b60006008830261166b7fffffffffffffffffffffffffffffffffffffffffffffffffffffffffffffffff8261162e565b611675868361162e565b95508019841693508086168417925050509392505050565b6000819050919050565b60006116b26116ad6116a8846111e3565b61168d565b6111e3565b9050919050565b6000819050919050565b6116cc83611697565b6116e06116d8826116b9565b84845461163b565b825550505050565b600090565b6116f56116e8565b6117008184846116c3565b505050565b5b81811015611724576117196000826116ed565b600181019050611706565b5050565b601f8211156117695761173a81611609565b6117438461161e565b81016020851015611752578190505b61176661175e8561161e565b830182611705565b50505b505050565b600082821c905092915050565b600061178c6000198460080261176e565b1980831691505092915050565b60006117a5838361177b565b9150826002028217905092915050565b6117be826110c9565b67ffffffffffffffff8111156117d7576117d66115da565b5b6117e182546114be565b6117ec828285611728565b600060209050601f83116001811461181f576000841561180d578287015190505b6118178582611799565b86555061187f565b601f19841661182d86611609565b60005b8281101561185557848901518255600182019150602085019450602081019050611830565b86831015611872578489015161186e601f89168261177b565b8355505b6001600288020188555050505b505050505050565b7f45524332303a2064656372656173656420616c6c6f77616e63652062656c6f7760008201527f207a65726f000000000000000000000000000000000000000000000000000000602082015250565b60006118e36025836110d4565b91506118ee82611887565b604082019050919050565b60006020820190508181036000830152611912816118d6565b9050919050565b7f45524332303a20617070726f76652066726f6d20746865207a65726f2061646460008201527f7265737300000000000000000000000000000000000000000000000000000000602082015250565b60006119756024836110d4565b915061198082611919565b604082019050919050565b600060208201905081810360008301526119a481611968565b9050919050565b7f45524332303a20617070726f766520746f20746865207a65726f20616464726560008201527f7373000000000000000000000000000000000000000000000000000000000000602082015250565b6000611a076022836110d4565b9150611a12826119ab565b604082019050919050565b60006020820190508181036000830152611a36816119fa565b9050919050565b7f45524332303a20696e73756666696369656e7420616c6c6f77616e6365000000600082015250565b6000611a73601d836110d4565b9150611a7e82611a3d565b602082019050919050565b60006020820190508181036000830152611aa281611a66565b9050919050565b7f45524332303a207472616e736665722066726f6d20746865207a65726f20616460008201527f6472657373000000000000000000000000000000000000000000000000000000602082015250565b6000611b056025836110d4565b9150611b1082611aa9565b604082019050919050565b60006020820190508181036000830152611b3481611af8565b9050919050565b7f45524332303a207472616e7366657220746f20746865207a65726f206164647260008201527f6573730000000000000000000000000000000000000000000000000000000000602082015250565b6000611b976023836110d4565b9150611ba282611b3b565b604082019050919050565b60006020820190508181036000830152611bc681611b8a565b9050919050565b7f45524332303a207472616e7366657220616d6f756e742065786365656473206260008201527f616c616e63650000000000000000000000000000000000000000000000000000602082015250565b6000611c296026836110d4565b9150611c3482611bcd565b604082019050919050565b60006020820190508181036000830152611c5881611c1c565b9050919050565b7f45524332303a206d696e7420746f20746865207a65726f206164647265737300600082015250565b6000611c95601f836110d4565b9150611ca082611c5f565b602082019050919050565b60006020820190508181036000830152611cc481611c88565b905091905056fea2646970667358221220b8f36983ef82158741229e0325b1af951008526ec0512abf6a05f6f5da96667064736f6c63430008110033",
  "linkReferences": {},
  "deployedLinkReferences": {}
}